:100000000C9434000C943E000C943E000C943E0082
:100010000C943E000C943E000C943E000C943E0068
:100020000C943E000C943E000C943E000C943E0058
:100030000C943E000C943E000C943E000C943E0048
:100040000C943E000C943E000C943E000C943E0038
:100050000C943E000C943E000C943E000C943E0028
:100060000C943E000C943E0011241FBECFEFD8E04C
:10007000DEBFCDBF0E9459000C9471000C940000AB
:100080000091C00007FFFCCF0091C60008951091B9
:10009000C00015FFFCCF1C3431F01C3621F007D016
:1000A0000093C60008952D9A0093C60008952D98D8
:1000B000089500E00093C50007E60093C40000E245
:1000C0000093C00006E00093C20008E10093C10065
:1000D00002E00AB900E204B90E9440000E94470011
:0600E000FBCFF894FFCFF6
:00000001FF
